{
  "contractName": "StackingTonted",
  "abi": [
    {
      "anonymous": false,
      "inputs": [
        {
          "indexed": true,
          "internalType": "address",
          "name": "previousOwner",
          "type": "address"
        },
        {
          "indexed": true,
          "internalType": "address",
          "name": "newOwner",
          "type": "address"
        }
      ],
      "name": "OwnershipTransferred",
      "type": "event"
    },
    {
      "inputs": [],
      "name": "owner",
      "outputs": [
        {
          "internalType": "address",
          "name": "",
          "type": "address"
        }
      ],
      "stateMutability": "view",
      "type": "function",
      "constant": true
    },
    {
      "inputs": [],
      "name": "renounceOwnership",
      "outputs": [],
      "stateMutability": "nonpayable",
      "type": "function"
    },
    {
      "inputs": [
        {
          "internalType": "address",
          "name": "newOwner",
          "type": "address"
        }
      ],
      "name": "transferOwnership",
      "outputs": [],
      "stateMutability": "nonpayable",
      "type": "function"
    },
    {
      "inputs": [
        {
          "internalType": "contract IERC20",
          "name": "_erc20Address",
          "type": "address"
        },
        {
          "internalType": "uint256",
          "name": "_amount",
          "type": "uint256"
        }
      ],
      "name": "deposit",
      "outputs": [],
      "stateMutability": "nonpayable",
      "type": "function"
    },
    {
      "inputs": [
        {
          "internalType": "contract IERC20",
          "name": "_erc20Address",
          "type": "address"
        },
        {
          "internalType": "uint256",
          "name": "_amount",
          "type": "uint256"
        }
      ],
      "name": "withdraw",
      "outputs": [],
      "stateMutability": "nonpayable",
      "type": "function"
    }
  ],
  "bytecode": "0x608060405234801561001057600080fd5b5061002d61002261003260201b60201c565b61003a60201b60201c565b6100fe565b600033905090565b60008060009054906101000a900473ffffffffffffffffffffffffffffffffffffffff169050816000806101000a81548173ffffffffffffffffffffffffffffffffffffffff021916908373ffffffffffffffffffffffffffffffffffffffff1602179055508173ffffffffffffffffffffffffffffffffffffffff168173ffffffffffffffffffffffffffffffffffffffff167f8be0079c531659141344cd1fd0a4f28419497f9722a3daafe3b4186f6b6457e060405160405180910390a35050565b610a008061010d6000396000f3fe608060405234801561001057600080fd5b50600436106100575760003560e01c806347e7ef241461005c578063715018a6146100785780638da5cb5b14610082578063f2fde38b146100a0578063f3fef3a3146100bc575b600080fd5b610076600480360381019061007191906106a2565b6100d8565b005b61008061026d565b005b61008a6102f5565b60405161009791906106f1565b60405180910390f35b6100ba60048036038101906100b59190610738565b61031e565b005b6100d660048036038101906100d191906106a2565b610415565b005b8173ffffffffffffffffffffffffffffffffffffffff1663095ea7b330836040518363ffffffff1660e01b8152600401610113929190610774565b6020604051808303816000875af1158015610132573d6000803e3d6000fd5b505050506040513d601f19601f8201168201806040525081019061015691906107d5565b508173ffffffffffffffffffffffffffffffffffffffff1663a9059cbb30836040518363ffffffff1660e01b8152600401610192929190610774565b6020604051808303816000875af11580156101b1573d6000803e3d6000fd5b505050506040513d601f19601f820116820180604052508101906101d591906107d5565b5080600160003373ffffffffffffffffffffffffffffffffffffffff1673ffffffffffffffffffffffffffffffffffffffff16815260200190815260200160002060008473ffffffffffffffffffffffffffffffffffffffff1673ffffffffffffffffffffffffffffffffffffffff16815260200190815260200160002060008282546102629190610831565b925050819055505050565b61027561052b565b73ffffffffffffffffffffffffffffffffffffffff166102936102f5565b73ffffffffffffffffffffffffffffffffffffffff16146102e9576040517f08c379a00000000000000000000000000000000000000000000000000000000081526004016102e0906108e4565b60405180910390fd5b6102f36000610533565b565b60008060009054906101000a900473ffffffffffffffffffffffffffffffffffffffff16905090565b61032661052b565b73ffffffffffffffffffffffffffffffffffffffff166103446102f5565b73ffffffffffffffffffffffffffffffffffffffff161461039a576040517f08c379a0000000000000000000000000000000000000000000000000000000008152600401610391906108e4565b60405180910390fd5b600073ffffffffffffffffffffffffffffffffffffffff168173ffffffffffffffffffffffffffffffffffffffff1603610409576040517f08c379a000000000000000000000000000000000000000000000000000000000815260040161040090610976565b60405180910390fd5b61041281610533565b50565b80600160003373ffffffffffffffffffffffffffffffffffffffff1673ffffffffffffffffffffffffffffffffffffffff16815260200190815260200160002060008473ffffffffffffffffffffffffffffffffffffffff1673ffffffffffffffffffffffffffffffffffffffff16815260200190815260200160002060008282546104a19190610996565b925050819055508173ffffffffffffffffffffffffffffffffffffffff1663a9059cbb33836040518363ffffffff1660e01b81526004016104e3929190610774565b6020604051808303816000875af1158015610502573d6000803e3d6000fd5b505050506040513d601f19601f8201168201806040525081019061052691906107d5565b505050565b600033905090565b60008060009054906101000a900473ffffffffffffffffffffffffffffffffffffffff169050816000806101000a81548173ffffffffffffffffffffffffffffffffffffffff021916908373ffffffffffffffffffffffffffffffffffffffff1602179055508173ffffffffffffffffffffffffffffffffffffffff168173ffffffffffffffffffffffffffffffffffffffff167f8be0079c531659141344cd1fd0a4f28419497f9722a3daafe3b4186f6b6457e060405160405180910390a35050565b600080fd5b600073ffffffffffffffffffffffffffffffffffffffff82169050919050565b6000610627826105fc565b9050919050565b60006106398261061c565b9050919050565b6106498161062e565b811461065457600080fd5b50565b60008135905061066681610640565b92915050565b6000819050919050565b61067f8161066c565b811461068a57600080fd5b50565b60008135905061069c81610676565b92915050565b600080604083850312156106b9576106b86105f7565b5b60006106c785828601610657565b92505060206106d88582860161068d565b9150509250929050565b6106eb8161061c565b82525050565b600060208201905061070660008301846106e2565b92915050565b6107158161061c565b811461072057600080fd5b50565b6000813590506107328161070c565b92915050565b60006020828403121561074e5761074d6105f7565b5b600061075c84828501610723565b91505092915050565b61076e8161066c565b82525050565b600060408201905061078960008301856106e2565b6107966020830184610765565b9392505050565b60008115159050919050565b6107b28161079d565b81146107bd57600080fd5b50565b6000815190506107cf816107a9565b92915050565b6000602082840312156107eb576107ea6105f7565b5b60006107f9848285016107c0565b91505092915050565b7f4e487b7100000000000000000000000000000000000000000000000000000000600052601160045260246000fd5b600061083c8261066c565b91506108478361066c565b9250827fffffffffffffffffffffffffffffffffffffffffffffffffffffffffffffffff0382111561087c5761087b610802565b5b828201905092915050565b600082825260208201905092915050565b7f4f776e61626c653a2063616c6c6572206973206e6f7420746865206f776e6572600082015250565b60006108ce602083610887565b91506108d982610898565b602082019050919050565b600060208201905081810360008301526108fd816108c1565b9050919050565b7f4f776e61626c653a206e6577206f776e657220697320746865207a65726f206160008201527f6464726573730000000000000000000000000000000000000000000000000000602082015250565b6000610960602683610887565b915061096b82610904565b604082019050919050565b6000602082019050818103600083015261098f81610953565b9050919050565b60006109a18261066c565b91506109ac8361066c565b9250828210156109bf576109be610802565b5b82820390509291505056fea264697066735822122099d9edda0e6f6182319ae1f5437fd0fcebcc03a16483cc4ebd0d130c781d33a264736f6c634300080d0033",
  "immutableReferences": {},
  "source": "// SPDX-License-Identifier: MIT\npragma solidity 0.8.13;\n\nimport \"@openzeppelin/contracts/access/Ownable.sol\";\nimport \"@chainlink/contracts/src/v0.8/interfaces/AggregatorV3Interface.sol\";\nimport \"@openzeppelin/contracts/token/ERC20/IERC20.sol\";\n\ncontract StackingTonted is Ownable {\n\n\t/*\n\t** @notice each staker has a mapping of each token staked with the amount.\n\t*/\n\tmapping(address => mapping(IERC20 => uint256)) stackers;\n\n\t/*\n\t** @notice each pool has the total ammount of token staked.\n\t*/\n\tmapping(IERC20 => uint256) pools;\n\n\n\tfunction deposit(IERC20 _erc20Address, uint256 _amount) external {\n\t\t_erc20Address.approve(address(this), _amount);\n\t\t_erc20Address.transfer(address(this), _amount);\n\t\tstackers[msg.sender][_erc20Address] += _amount;\n\t}\n\n\tfunction withdraw(IERC20 _erc20Address, uint256 _amount) external {\n\t\tstackers[msg.sender][_erc20Address] -= _amount;\n\t\t_erc20Address.transfer(msg.sender, _amount);\n\t}\n\n}",
  "sourcePath": "/Users/tonted/alyra/AlyraStacking/contracts/StackingTonted.sol",
  "compiler": {
    "name": "solc",
    "version": "0.8.13+commit.abaa5c0e.Emscripten.clang"
  },
  "schemaVersion": "3.4.6",
  "updatedAt": "2022-05-01T15:10:22.015Z",
  "networkType": "ethereum",
  "devdoc": {
    "kind": "dev",
    "methods": {
      "owner()": {
        "details": "Returns the address of the current owner."
      },
      "renounceOwnership()": {
        "details": "Leaves the contract without owner. It will not be possible to call `onlyOwner` functions anymore. Can only be called by the current owner. NOTE: Renouncing ownership will leave the contract without an owner, thereby removing any functionality that is only available to the owner."
      },
      "transferOwnership(address)": {
        "details": "Transfers ownership of the contract to a new account (`newOwner`). Can only be called by the current owner."
      }
    },
    "version": 1
  },
  "userdoc": {
    "kind": "user",
    "methods": {},
    "version": 1
  }
}