{
  "contractName": "Stacking",
  "abi": [
    {
      "inputs": [
        {
          "internalType": "uint256",
          "name": "_rewardPerSecond",
          "type": "uint256"
        }
      ],
      "stateMutability": "nonpayable",
      "type": "constructor"
    },
    {
      "anonymous": false,
      "inputs": [
        {
          "indexed": true,
          "internalType": "address",
          "name": "previousOwner",
          "type": "address"
        },
        {
          "indexed": true,
          "internalType": "address",
          "name": "newOwner",
          "type": "address"
        }
      ],
      "name": "OwnershipTransferred",
      "type": "event"
    },
    {
      "inputs": [
        {
          "internalType": "contract IERC20",
          "name": "",
          "type": "address"
        }
      ],
      "name": "allowedERC20s",
      "outputs": [
        {
          "internalType": "address",
          "name": "",
          "type": "address"
        }
      ],
      "stateMutability": "view",
      "type": "function"
    },
    {
      "inputs": [],
      "name": "owner",
      "outputs": [
        {
          "internalType": "address",
          "name": "",
          "type": "address"
        }
      ],
      "stateMutability": "view",
      "type": "function"
    },
    {
      "inputs": [],
      "name": "renounceOwnership",
      "outputs": [],
      "stateMutability": "nonpayable",
      "type": "function"
    },
    {
      "inputs": [],
      "name": "rewardsPerSecond",
      "outputs": [
        {
          "internalType": "uint256",
          "name": "",
          "type": "uint256"
        }
      ],
      "stateMutability": "view",
      "type": "function"
    },
    {
      "inputs": [
        {
          "internalType": "address",
          "name": "",
          "type": "address"
        },
        {
          "internalType": "contract IERC20",
          "name": "",
          "type": "address"
        }
      ],
      "name": "stackers",
      "outputs": [
        {
          "internalType": "uint256",
          "name": "date",
          "type": "uint256"
        },
        {
          "internalType": "uint256",
          "name": "amount",
          "type": "uint256"
        },
        {
          "internalType": "uint256",
          "name": "pendingRewards",
          "type": "uint256"
        }
      ],
      "stateMutability": "view",
      "type": "function"
    },
    {
      "inputs": [
        {
          "internalType": "address",
          "name": "newOwner",
          "type": "address"
        }
      ],
      "name": "transferOwnership",
      "outputs": [],
      "stateMutability": "nonpayable",
      "type": "function"
    },
    {
      "inputs": [
        {
          "internalType": "contract IERC20",
          "name": "_tokenAddress",
          "type": "address"
        },
        {
          "internalType": "address",
          "name": "_aggregator",
          "type": "address"
        }
      ],
      "name": "allowToken",
      "outputs": [],
      "stateMutability": "nonpayable",
      "type": "function"
    },
    {
      "inputs": [
        {
          "internalType": "contract IERC20",
          "name": "_erc20Address",
          "type": "address"
        },
        {
          "internalType": "uint256",
          "name": "_amount",
          "type": "uint256"
        }
      ],
      "name": "deposit",
      "outputs": [],
      "stateMutability": "nonpayable",
      "type": "function"
    },
    {
      "inputs": [
        {
          "internalType": "contract IERC20",
          "name": "_erc20Address",
          "type": "address"
        },
        {
          "internalType": "uint256",
          "name": "_amount",
          "type": "uint256"
        }
      ],
      "name": "withdraw",
      "outputs": [],
      "stateMutability": "nonpayable",
      "type": "function"
    },
    {
      "inputs": [],
      "name": "claim",
      "outputs": [],
      "stateMutability": "nonpayable",
      "type": "function"
    }
  ],
  "bytecode": "0x60806040523480156200001157600080fd5b506040516200131f3803806200131f8339818101604052810190620000379190620001c6565b620000576200004b620000ba60201b60201c565b620000c260201b60201c565b80600281905550739326bfa02add2366b30bacb125260af641031331600160006101000a81548173ffffffffffffffffffffffffffffffffffffffff021916908373ffffffffffffffffffffffffffffffffffffffff16021790555050620001f8565b600033905090565b60008060009054906101000a900473ffffffffffffffffffffffffffffffffffffffff169050816000806101000a81548173ffffffffffffffffffffffffffffffffffffffff021916908373ffffffffffffffffffffffffffffffffffffffff1602179055508173ffffffffffffffffffffffffffffffffffffffff168173ffffffffffffffffffffffffffffffffffffffff167f8be0079c531659141344cd1fd0a4f28419497f9722a3daafe3b4186f6b6457e060405160405180910390a35050565b600080fd5b6000819050919050565b620001a0816200018b565b8114620001ac57600080fd5b50565b600081519050620001c08162000195565b92915050565b600060208284031215620001df57620001de62000186565b5b6000620001ef84828501620001af565b91505092915050565b61111780620002086000396000f3fe608060405234801561001057600080fd5b506004361061009e5760003560e01c80638324328911610066578063832432891461011f5780638da5cb5b14610151578063eacdaabc1461016f578063f2fde38b1461018d578063f3fef3a3146101a95761009e565b806321fcbf57146100a357806347e7ef24146100bf5780634e71d92d146100db57806369cc6af4146100e5578063715018a614610115575b600080fd5b6100bd60048036038101906100b89190610a49565b6101c5565b005b6100d960048036038101906100d49190610abf565b6102c3565b005b6100e3610534565b005b6100ff60048036038101906100fa9190610aff565b610536565b60405161010c9190610b3b565b60405180910390f35b61011d610569565b005b61013960048036038101906101349190610b56565b6105f1565b60405161014893929190610ba5565b60405180910390f35b610159610628565b6040516101669190610b3b565b60405180910390f35b610177610651565b6040516101849190610bdc565b60405180910390f35b6101a760048036038101906101a29190610bf7565b610657565b005b6101c360048036038101906101be9190610abf565b61074e565b005b6101cd6108dc565b73ffffffffffffffffffffffffffffffffffffffff166101eb610628565b73ffffffffffffffffffffffffffffffffffffffff1614610241576040517f08c379a000000000000000000000000000000000000000000000000000000000815260040161023890610c81565b60405180910390fd5b80600360008473ffffffffffffffffffffffffffffffffffffffff1673ffffffffffffffffffffffffffffffffffffffff16815260200190815260200160002060006101000a81548173ffffffffffffffffffffffffffffffffffffffff021916908373ffffffffffffffffffffffffffffffffffffffff1602179055505050565b600073ffffffffffffffffffffffffffffffffffffffff16600360008473ffffffffffffffffffffffffffffffffffffffff1673ffffffffffffffffffffffffffffffffffffffff16815260200190815260200160002060009054906101000a900473ffffffffffffffffffffffffffffffffffffffff1673ffffffffffffffffffffffffffffffffffffffff1603610391576040517f08c379a000000000000000000000000000000000000000000000000000000000815260040161038890610d13565b60405180910390fd5b6000600560003373ffffffffffffffffffffffffffffffffffffffff1673ffffffffffffffffffffffffffffffffffffffff16815260200190815260200160002060008473ffffffffffffffffffffffffffffffffffffffff1673ffffffffffffffffffffffffffffffffffffffff16815260200190815260200160002090506000816000015414610443576002548160000154426104309190610d62565b61043a9190610d96565b81600201819055505b428160000181905550818160010160008282546104609190610df0565b925050819055504281600001819055508273ffffffffffffffffffffffffffffffffffffffff166323b872dd3330856040518463ffffffff1660e01b81526004016104ad93929190610e46565b6020604051808303816000875af11580156104cc573d6000803e3d6000fd5b505050506040513d601f19601f820116820180604052508101906104f09190610eb5565b61052f576040517f08c379a000000000000000000000000000000000000000000000000000000000815260040161052690610f2e565b60405180910390fd5b505050565b565b60036020528060005260406000206000915054906101000a900473ffffffffffffffffffffffffffffffffffffffff1681565b6105716108dc565b73ffffffffffffffffffffffffffffffffffffffff1661058f610628565b73ffffffffffffffffffffffffffffffffffffffff16146105e5576040517f08c379a00000000000000000000000000000000000000000000000000000000081526004016105dc90610c81565b60405180910390fd5b6105ef60006108e4565b565b6005602052816000526040600020602052806000526040600020600091509150508060000154908060010154908060020154905083565b60008060009054906101000a900473ffffffffffffffffffffffffffffffffffffffff16905090565b60025481565b61065f6108dc565b73ffffffffffffffffffffffffffffffffffffffff1661067d610628565b73ffffffffffffffffffffffffffffffffffffffff16146106d3576040517f08c379a00000000000000000000000000000000000000000000000000000000081526004016106ca90610c81565b60405180910390fd5b600073ffffffffffffffffffffffffffffffffffffffff168173ffffffffffffffffffffffffffffffffffffffff1603610742576040517f08c379a000000000000000000000000000000000000000000000000000000000815260040161073990610fc0565b60405180910390fd5b61074b816108e4565b50565b60008111610791576040517f08c379a00000000000000000000000000000000000000000000000000000000081526004016107889061102c565b60405180910390fd5b6000600560003373ffffffffffffffffffffffffffffffffffffffff1673ffffffffffffffffffffffffffffffffffffffff16815260200190815260200160002060008473ffffffffffffffffffffffffffffffffffffffff1673ffffffffffffffffffffffffffffffffffffffff16815260200190815260200160002090508181600101541015610858576040517f08c379a000000000000000000000000000000000000000000000000000000000815260040161084f90611098565b60405180910390fd5b8273ffffffffffffffffffffffffffffffffffffffff1663a9059cbb33846040518363ffffffff1660e01b81526004016108939291906110b8565b6020604051808303816000875af11580156108b2573d6000803e3d6000fd5b505050506040513d601f19601f820116820180604052508101906108d69190610eb5565b50505050565b600033905090565b60008060009054906101000a900473ffffffffffffffffffffffffffffffffffffffff169050816000806101000a81548173ffffffffffffffffffffffffffffffffffffffff021916908373ffffffffffffffffffffffffffffffffffffffff1602179055508173ffffffffffffffffffffffffffffffffffffffff168173ffffffffffffffffffffffffffffffffffffffff167f8be0079c531659141344cd1fd0a4f28419497f9722a3daafe3b4186f6b6457e060405160405180910390a35050565b600080fd5b600073ffffffffffffffffffffffffffffffffffffffff82169050919050565b60006109d8826109ad565b9050919050565b60006109ea826109cd565b9050919050565b6109fa816109df565b8114610a0557600080fd5b50565b600081359050610a17816109f1565b92915050565b610a26816109cd565b8114610a3157600080fd5b50565b600081359050610a4381610a1d565b92915050565b60008060408385031215610a6057610a5f6109a8565b5b6000610a6e85828601610a08565b9250506020610a7f85828601610a34565b9150509250929050565b6000819050919050565b610a9c81610a89565b8114610aa757600080fd5b50565b600081359050610ab981610a93565b92915050565b60008060408385031215610ad657610ad56109a8565b5b6000610ae485828601610a08565b9250506020610af585828601610aaa565b9150509250929050565b600060208284031215610b1557610b146109a8565b5b6000610b2384828501610a08565b91505092915050565b610b35816109cd565b82525050565b6000602082019050610b506000830184610b2c565b92915050565b60008060408385031215610b6d57610b6c6109a8565b5b6000610b7b85828601610a34565b9250506020610b8c85828601610a08565b9150509250929050565b610b9f81610a89565b82525050565b6000606082019050610bba6000830186610b96565b610bc76020830185610b96565b610bd46040830184610b96565b949350505050565b6000602082019050610bf16000830184610b96565b92915050565b600060208284031215610c0d57610c0c6109a8565b5b6000610c1b84828501610a34565b91505092915050565b600082825260208201905092915050565b7f4f776e61626c653a2063616c6c6572206973206e6f7420746865206f776e6572600082015250565b6000610c6b602083610c24565b9150610c7682610c35565b602082019050919050565b60006020820190508181036000830152610c9a81610c5e565b9050919050565b7f5468697320746f6b656e20686173206e6f74206265656e20616c6c6f7765642060008201527f7965740000000000000000000000000000000000000000000000000000000000602082015250565b6000610cfd602383610c24565b9150610d0882610ca1565b604082019050919050565b60006020820190508181036000830152610d2c81610cf0565b9050919050565b7f4e487b7100000000000000000000000000000000000000000000000000000000600052601160045260246000fd5b6000610d6d82610a89565b9150610d7883610a89565b925082821015610d8b57610d8a610d33565b5b828203905092915050565b6000610da182610a89565b9150610dac83610a89565b9250817fffffffffffffffffffffffffffffffffffffffffffffffffffffffffffffffff0483118215151615610de557610de4610d33565b5b828202905092915050565b6000610dfb82610a89565b9150610e0683610a89565b9250827fffffffffffffffffffffffffffffffffffffffffffffffffffffffffffffffff03821115610e3b57610e3a610d33565b5b828201905092915050565b6000606082019050610e5b6000830186610b2c565b610e686020830185610b2c565b610e756040830184610b96565b949350505050565b60008115159050919050565b610e9281610e7d565b8114610e9d57600080fd5b50565b600081519050610eaf81610e89565b92915050565b600060208284031215610ecb57610eca6109a8565b5b6000610ed984828501610ea0565b91505092915050565b7f5472616e73666572206661696c65640000000000000000000000000000000000600082015250565b6000610f18600f83610c24565b9150610f2382610ee2565b602082019050919050565b60006020820190508181036000830152610f4781610f0b565b9050919050565b7f4f776e61626c653a206e6577206f776e657220697320746865207a65726f206160008201527f6464726573730000000000000000000000000000000000000000000000000000602082015250565b6000610faa602683610c24565b9150610fb582610f4e565b604082019050919050565b60006020820190508181036000830152610fd981610f9d565b9050919050565b7f596f75206d7573742070726f7669646520616e20616d6f756e74203e20300000600082015250565b6000611016601e83610c24565b915061102182610fe0565b602082019050919050565b6000602082019050818103600083015261104581611009565b9050919050565b7f596f7520646f6e27742068617665207468697320746f6b656e00000000000000600082015250565b6000611082601983610c24565b915061108d8261104c565b602082019050919050565b600060208201905081810360008301526110b181611075565b9050919050565b60006040820190506110cd6000830185610b2c565b6110da6020830184610b96565b939250505056fea26469706673582212207113af624b3a042bee12d7eabc03b486f0e2674a74ba3496f11a11cf51ef154564736f6c634300080d0033",
  "immutableReferences": {},
  "source": "// SPDX-License-Identifier: MIT\npragma solidity 0.8.13;\n\nimport \"@openzeppelin/contracts/access/Ownable.sol\";\nimport \"@chainlink/contracts/src/v0.8/interfaces/AggregatorV3Interface.sol\";\nimport \"@openzeppelin/contracts/token/ERC20/IERC20.sol\";\n\ncontract Stacking is Ownable {\n\n  AggregatorV3Interface internal priceFeed;\n\n  uint256 public rewardsPerSecond;\n\n  struct ERC20Staked {\n    uint256 date;\n    uint256 amount;\n    uint256 pendingRewards; // In case stacker adds more coin later we have to store how much reward he has accumulated before to add more\n  }\n\n  struct PoolInfo {\n    uint256 lastRewardBlock;\n    uint256 accRewardPerShare;\n  }\n\n  mapping(IERC20 => address) public allowedERC20s;\n  mapping(IERC20 => PoolInfo) pools;\n\n  mapping(address => mapping(IERC20 => ERC20Staked)) public stackers;\n\n  constructor(uint256 _rewardPerSecond) {\n    rewardsPerSecond = _rewardPerSecond;\n    priceFeed = AggregatorV3Interface(0x9326BFA02ADD2366b30bacB125260Af641031331);\n  }\n\n  /// Owner acl an ERC20 token\n  function allowToken(IERC20 _tokenAddress, address _aggregator) onlyOwner public {\n    allowedERC20s[_tokenAddress] = _aggregator;\n  }\n\n  function deposit(IERC20 _erc20Address, uint256 _amount) public {\n    require(allowedERC20s[_erc20Address] != address(0x0), \"This token has not been allowed yet\");\n    ERC20Staked storage stacker = stackers[msg.sender][_erc20Address];\n\n    // We already have a staking for this address\n    if (stacker.date != 0) {\n      stacker.pendingRewards = (block.timestamp - stacker.date) * rewardsPerSecond;\n    }\n\n    stacker.date = block.timestamp;\n    stacker.amount += _amount;\n\n    stacker.date = block.timestamp;\n\n    require(_erc20Address.transferFrom(msg.sender, address(this), _amount), \"Transfer failed\");\n  }\n\n  function withdraw(IERC20 _erc20Address, uint256 _amount) public {\n    require(_amount > 0, \"You must provide an amount > 0\");\n\n    ERC20Staked storage stacker = stackers[msg.sender][_erc20Address];\n\n    require(stacker.amount >= _amount, \"You don't have this token\");\n\n    _erc20Address.transfer(msg.sender, _amount);\n\n    // todo: send reward\n\n  }\n\n  function calculate(uint256 _seconds, IERC20 _tokenAddress) private {\n\n  }\n\n  function claim() public {\n\n  }\n}\n",
  "sourcePath": "/Users/tonted/alyra/AlyraStacking/contracts/Stacking.sol",
  "compiler": {
    "name": "solc",
    "version": "0.8.13+commit.abaa5c0e.Emscripten.clang"
  },
  "schemaVersion": "3.4.6",
  "updatedAt": "2022-05-01T14:42:13.582Z",
  "devdoc": {
    "kind": "dev",
    "methods": {
      "owner()": {
        "details": "Returns the address of the current owner."
      },
      "renounceOwnership()": {
        "details": "Leaves the contract without owner. It will not be possible to call `onlyOwner` functions anymore. Can only be called by the current owner. NOTE: Renouncing ownership will leave the contract without an owner, thereby removing any functionality that is only available to the owner."
      },
      "transferOwnership(address)": {
        "details": "Transfers ownership of the contract to a new account (`newOwner`). Can only be called by the current owner."
      }
    },
    "version": 1
  },
  "userdoc": {
    "kind": "user",
    "methods": {
      "allowToken(address,address)": {
        "notice": "Owner acl an ERC20 token"
      }
    },
    "version": 1
  }
}