{
  "contractName": "StackingTonted",
  "abi": [
    {
      "anonymous": false,
      "inputs": [
        {
          "indexed": false,
          "internalType": "contract IERC20",
          "name": "token",
          "type": "address"
        },
        {
          "indexed": false,
          "internalType": "address",
          "name": "owner",
          "type": "address"
        },
        {
          "indexed": false,
          "internalType": "uint256",
          "name": "amount",
          "type": "uint256"
        }
      ],
      "name": "Deposited",
      "type": "event"
    },
    {
      "anonymous": false,
      "inputs": [
        {
          "indexed": true,
          "internalType": "address",
          "name": "previousOwner",
          "type": "address"
        },
        {
          "indexed": true,
          "internalType": "address",
          "name": "newOwner",
          "type": "address"
        }
      ],
      "name": "OwnershipTransferred",
      "type": "event"
    },
    {
      "anonymous": false,
      "inputs": [
        {
          "indexed": false,
          "internalType": "contract IERC20",
          "name": "token",
          "type": "address"
        },
        {
          "indexed": false,
          "internalType": "address",
          "name": "owner",
          "type": "address"
        },
        {
          "indexed": false,
          "internalType": "uint256",
          "name": "amount",
          "type": "uint256"
        }
      ],
      "name": "Withdrawn",
      "type": "event"
    },
    {
      "inputs": [],
      "name": "owner",
      "outputs": [
        {
          "internalType": "address",
          "name": "",
          "type": "address"
        }
      ],
      "stateMutability": "view",
      "type": "function",
      "constant": true
    },
    {
      "inputs": [
        {
          "internalType": "contract IERC20",
          "name": "",
          "type": "address"
        }
      ],
      "name": "pools",
      "outputs": [
        {
          "internalType": "uint256",
          "name": "",
          "type": "uint256"
        }
      ],
      "stateMutability": "view",
      "type": "function",
      "constant": true
    },
    {
      "inputs": [],
      "name": "renounceOwnership",
      "outputs": [],
      "stateMutability": "nonpayable",
      "type": "function"
    },
    {
      "inputs": [
        {
          "internalType": "address",
          "name": "",
          "type": "address"
        },
        {
          "internalType": "contract IERC20",
          "name": "",
          "type": "address"
        }
      ],
      "name": "stackers",
      "outputs": [
        {
          "internalType": "uint256",
          "name": "",
          "type": "uint256"
        }
      ],
      "stateMutability": "view",
      "type": "function",
      "constant": true
    },
    {
      "inputs": [
        {
          "internalType": "address",
          "name": "newOwner",
          "type": "address"
        }
      ],
      "name": "transferOwnership",
      "outputs": [],
      "stateMutability": "nonpayable",
      "type": "function"
    },
    {
      "inputs": [
        {
          "internalType": "contract IERC20",
          "name": "_erc20Address",
          "type": "address"
        },
        {
          "internalType": "uint256",
          "name": "_amount",
          "type": "uint256"
        }
      ],
      "name": "deposit",
      "outputs": [],
      "stateMutability": "nonpayable",
      "type": "function"
    },
    {
      "inputs": [
        {
          "internalType": "contract IERC20",
          "name": "_erc20Address",
          "type": "address"
        },
        {
          "internalType": "uint256",
          "name": "_amount",
          "type": "uint256"
        }
      ],
      "name": "withdraw",
      "outputs": [],
      "stateMutability": "nonpayable",
      "type": "function"
    }
  ],
  "bytecode": "0x608060405234801561001057600080fd5b5061002d61002261003260201b60201c565b61003a60201b60201c565b6100fe565b600033905090565b60008060009054906101000a900473ffffffffffffffffffffffffffffffffffffffff169050816000806101000a81548173ffffffffffffffffffffffffffffffffffffffff021916908373ffffffffffffffffffffffffffffffffffffffff1602179055508173ffffffffffffffffffffffffffffffffffffffff168173ffffffffffffffffffffffffffffffffffffffff167f8be0079c531659141344cd1fd0a4f28419497f9722a3daafe3b4186f6b6457e060405160405180910390a35050565b610de88061010d6000396000f3fe608060405234801561001057600080fd5b506004361061007d5760003560e01c80638da5cb5b1161005b5780638da5cb5b146100d8578063a4063dbc146100f6578063f2fde38b14610126578063f3fef3a3146101425761007d565b806347e7ef2414610082578063715018a61461009e57806383243289146100a8575b600080fd5b61009c600480360381019061009791906108c9565b61015e565b005b6100a6610307565b005b6100c260048036038101906100bd9190610935565b61038f565b6040516100cf9190610984565b60405180910390f35b6100e06103b4565b6040516100ed91906109ae565b60405180910390f35b610110600480360381019061010b91906109c9565b6103dd565b60405161011d9190610984565b60405180910390f35b610140600480360381019061013b91906109f6565b6103f5565b005b61015c600480360381019061015791906108c9565b6104ec565b005b8173ffffffffffffffffffffffffffffffffffffffff166323b872dd3330846040518463ffffffff1660e01b815260040161019b93929190610a23565b6020604051808303816000875af11580156101ba573d6000803e3d6000fd5b505050506040513d601f19601f820116820180604052508101906101de9190610a92565b5080600160003373ffffffffffffffffffffffffffffffffffffffff1673ffffffffffffffffffffffffffffffffffffffff16815260200190815260200160002060008473ffffffffffffffffffffffffffffffffffffffff1673ffffffffffffffffffffffffffffffffffffffff168152602001908152602001600020600082825461026b9190610aee565b9250508190555080600260008473ffffffffffffffffffffffffffffffffffffffff1673ffffffffffffffffffffffffffffffffffffffff16815260200190815260200160002060008282546102c19190610aee565b925050819055507f8752a472e571a816aea92eec8dae9baf628e840f4929fbcc2d155e6233ff68a78233836040516102fb93929190610ba3565b60405180910390a15050565b61030f610752565b73ffffffffffffffffffffffffffffffffffffffff1661032d6103b4565b73ffffffffffffffffffffffffffffffffffffffff1614610383576040517f08c379a000000000000000000000000000000000000000000000000000000000815260040161037a90610c37565b60405180910390fd5b61038d600061075a565b565b6001602052816000526040600020602052806000526040600020600091509150505481565b60008060009054906101000a900473ffffffffffffffffffffffffffffffffffffffff16905090565b60026020528060005260406000206000915090505481565b6103fd610752565b73ffffffffffffffffffffffffffffffffffffffff1661041b6103b4565b73ffffffffffffffffffffffffffffffffffffffff1614610471576040517f08c379a000000000000000000000000000000000000000000000000000000000815260040161046890610c37565b60405180910390fd5b600073ffffffffffffffffffffffffffffffffffffffff168173ffffffffffffffffffffffffffffffffffffffff16036104e0576040517f08c379a00000000000000000000000000000000000000000000000000000000081526004016104d790610cc9565b60405180910390fd5b6104e98161075a565b50565b80600160003373ffffffffffffffffffffffffffffffffffffffff1673ffffffffffffffffffffffffffffffffffffffff16815260200190815260200160002060008473ffffffffffffffffffffffffffffffffffffffff1673ffffffffffffffffffffffffffffffffffffffff1681526020019081526020016000205410156105ab576040517f08c379a00000000000000000000000000000000000000000000000000000000081526004016105a290610d35565b60405180910390fd5b8173ffffffffffffffffffffffffffffffffffffffff1663a9059cbb33836040518363ffffffff1660e01b81526004016105e6929190610d55565b6020604051808303816000875af1158015610605573d6000803e3d6000fd5b505050506040513d601f19601f820116820180604052508101906106299190610a92565b5080600160003373ffffffffffffffffffffffffffffffffffffffff1673ffffffffffffffffffffffffffffffffffffffff16815260200190815260200160002060008473ffffffffffffffffffffffffffffffffffffffff1673ffffffffffffffffffffffffffffffffffffffff16815260200190815260200160002060008282546106b69190610d7e565b9250508190555080600260008473ffffffffffffffffffffffffffffffffffffffff1673ffffffffffffffffffffffffffffffffffffffff168152602001908152602001600020600082825461070c9190610d7e565b925050819055507fd1c19fbcd4551a5edfb66d43d2e337c04837afda3482b42bdf569a8fccdae5fb82338360405161074693929190610ba3565b60405180910390a15050565b600033905090565b60008060009054906101000a900473ffffffffffffffffffffffffffffffffffffffff169050816000806101000a81548173ffffffffffffffffffffffffffffffffffffffff021916908373ffffffffffffffffffffffffffffffffffffffff1602179055508173ffffffffffffffffffffffffffffffffffffffff168173ffffffffffffffffffffffffffffffffffffffff167f8be0079c531659141344cd1fd0a4f28419497f9722a3daafe3b4186f6b6457e060405160405180910390a35050565b600080fd5b600073ffffffffffffffffffffffffffffffffffffffff82169050919050565b600061084e82610823565b9050919050565b600061086082610843565b9050919050565b61087081610855565b811461087b57600080fd5b50565b60008135905061088d81610867565b92915050565b6000819050919050565b6108a681610893565b81146108b157600080fd5b50565b6000813590506108c38161089d565b92915050565b600080604083850312156108e0576108df61081e565b5b60006108ee8582860161087e565b92505060206108ff858286016108b4565b9150509250929050565b61091281610843565b811461091d57600080fd5b50565b60008135905061092f81610909565b92915050565b6000806040838503121561094c5761094b61081e565b5b600061095a85828601610920565b925050602061096b8582860161087e565b9150509250929050565b61097e81610893565b82525050565b60006020820190506109996000830184610975565b92915050565b6109a881610843565b82525050565b60006020820190506109c3600083018461099f565b92915050565b6000602082840312156109df576109de61081e565b5b60006109ed8482850161087e565b91505092915050565b600060208284031215610a0c57610a0b61081e565b5b6000610a1a84828501610920565b91505092915050565b6000606082019050610a38600083018661099f565b610a45602083018561099f565b610a526040830184610975565b949350505050565b60008115159050919050565b610a6f81610a5a565b8114610a7a57600080fd5b50565b600081519050610a8c81610a66565b92915050565b600060208284031215610aa857610aa761081e565b5b6000610ab684828501610a7d565b91505092915050565b7f4e487b7100000000000000000000000000000000000000000000000000000000600052601160045260246000fd5b6000610af982610893565b9150610b0483610893565b9250827fffffffffffffffffffffffffffffffffffffffffffffffffffffffffffffffff03821115610b3957610b38610abf565b5b828201905092915050565b6000819050919050565b6000610b69610b64610b5f84610823565b610b44565b610823565b9050919050565b6000610b7b82610b4e565b9050919050565b6000610b8d82610b70565b9050919050565b610b9d81610b82565b82525050565b6000606082019050610bb86000830186610b94565b610bc5602083018561099f565b610bd26040830184610975565b949350505050565b600082825260208201905092915050565b7f4f776e61626c653a2063616c6c6572206973206e6f7420746865206f776e6572600082015250565b6000610c21602083610bda565b9150610c2c82610beb565b602082019050919050565b60006020820190508181036000830152610c5081610c14565b9050919050565b7f4f776e61626c653a206e6577206f776e657220697320746865207a65726f206160008201527f6464726573730000000000000000000000000000000000000000000000000000602082015250565b6000610cb3602683610bda565b9150610cbe82610c57565b604082019050919050565b60006020820190508181036000830152610ce281610ca6565b9050919050565b7f696e73756666696369656e742062616c616e6365000000000000000000000000600082015250565b6000610d1f601483610bda565b9150610d2a82610ce9565b602082019050919050565b60006020820190508181036000830152610d4e81610d12565b9050919050565b6000604082019050610d6a600083018561099f565b610d776020830184610975565b9392505050565b6000610d8982610893565b9150610d9483610893565b925082821015610da757610da6610abf565b5b82820390509291505056fea2646970667358221220bcb2672be83d71499fbc517fd73a90424b774afa90bc14c8420a981bf5b303ae64736f6c634300080d0033",
  "immutableReferences": {},
  "source": "// SPDX-License-Identifier: MIT\npragma solidity 0.8.13;\n\nimport \"@openzeppelin/contracts/access/Ownable.sol\";\nimport \"@chainlink/contracts/src/v0.8/interfaces/AggregatorV3Interface.sol\";\nimport \"@openzeppelin/contracts/token/ERC20/IERC20.sol\";\n\ncontract StackingTonted is Ownable {\n\n\t/*\n\t** @notice each staker has a mapping of each token staked with the amount.\n\t*/\n\tmapping(address => mapping(IERC20 => uint256)) public stackers;\n\n\t/*\n\t** @notice each pool has the total ammount of token staked.\n\t*/\n\tmapping(IERC20 => uint256) public pools;\n\n\tevent Deposited(IERC20 token, address owner, uint256 amount);\n\tevent Withdrawn(IERC20 token, address owner, uint256 amount);\n\n\n\tfunction deposit(IERC20 _erc20Address, uint256 _amount) external {\n\t\t_erc20Address.transferFrom(msg.sender, address(this), _amount);\n\t\tstackers[msg.sender][_erc20Address] += _amount;\n\t\tpools[_erc20Address] += _amount;\n\t\temit Deposited(_erc20Address, msg.sender, _amount);\n\t}\n\n\tfunction withdraw(IERC20 _erc20Address, uint256 _amount) external {\n\t\trequire(stackers[msg.sender][_erc20Address] >= _amount, \"insufficient balance\");\n\t\t_erc20Address.transfer(msg.sender, _amount);\n\t\tstackers[msg.sender][_erc20Address] -= _amount;\n\t\tpools[_erc20Address] -= _amount;\n\t\temit Withdrawn(_erc20Address, msg.sender, _amount);\n\t}\n}",
  "sourcePath": "/Users/tonted/alyra/AlyraStacking/contracts/StackingTonted.sol",
  "compiler": {
    "name": "solc",
    "version": "0.8.13+commit.abaa5c0e.Emscripten.clang"
  },
  "schemaVersion": "3.4.6",
  "updatedAt": "2022-05-02T02:16:01.591Z",
  "networkType": "ethereum",
  "devdoc": {
    "kind": "dev",
    "methods": {
      "owner()": {
        "details": "Returns the address of the current owner."
      },
      "renounceOwnership()": {
        "details": "Leaves the contract without owner. It will not be possible to call `onlyOwner` functions anymore. Can only be called by the current owner. NOTE: Renouncing ownership will leave the contract without an owner, thereby removing any functionality that is only available to the owner."
      },
      "transferOwnership(address)": {
        "details": "Transfers ownership of the contract to a new account (`newOwner`). Can only be called by the current owner."
      }
    },
    "version": 1
  },
  "userdoc": {
    "kind": "user",
    "methods": {},
    "version": 1
  }
}